{
  "contractName": "Auth",
  "abi": [
    {
      "constant": true,
      "inputs": [
        {
          "name": "",
          "type": "uint256"
        }
      ],
      "name": "users",
      "outputs": [
        {
          "name": "id",
          "type": "uint256"
        },
        {
          "name": "creator",
          "type": "address"
        },
        {
          "name": "username",
          "type": "string"
        },
        {
          "name": "password",
          "type": "string"
        }
      ],
      "payable": false,
      "stateMutability": "view",
      "type": "function"
    },
    {
      "constant": false,
      "inputs": [
        {
          "name": "_username",
          "type": "string"
        },
        {
          "name": "_password",
          "type": "string"
        },
        {
          "name": "_loggedUser",
          "type": "string"
        }
      ],
      "name": "createUser",
      "outputs": [
        {
          "name": "",
          "type": "bool"
        }
      ],
      "payable": false,
      "stateMutability": "nonpayable",
      "type": "function"
    },
    {
      "constant": true,
      "inputs": [
        {
          "name": "_username",
          "type": "string"
        },
        {
          "name": "_password",
          "type": "string"
        }
      ],
      "name": "existsUser",
      "outputs": [
        {
          "name": "result",
          "type": "bool"
        }
      ],
      "payable": false,
      "stateMutability": "view",
      "type": "function"
    },
    {
      "constant": true,
      "inputs": [],
      "name": "getAllUsers",
      "outputs": [
        {
          "name": "",
          "type": "uint256[]"
        }
      ],
      "payable": false,
      "stateMutability": "view",
      "type": "function"
    },
    {
      "constant": true,
      "inputs": [],
      "name": "getNumberOfUsers",
      "outputs": [
        {
          "name": "number",
          "type": "uint256"
        }
      ],
      "payable": false,
      "stateMutability": "view",
      "type": "function"
    },
    {
      "constant": true,
      "inputs": [
        {
          "name": "index",
          "type": "uint256"
        }
      ],
      "name": "getuser",
      "outputs": [
        {
          "name": "_name",
          "type": "string"
        },
        {
          "name": "_password",
          "type": "string"
        }
      ],
      "payable": false,
      "stateMutability": "view",
      "type": "function"
    }
  ],
  "bytecode": "0x6060604052341561000f57600080fd5b610e388061001e6000396000f300606060405260043610610078576000357c0100000000000000000000000000000000000000000000000000000000900463ffffffff168063365b98b21461007d57806349ccfc71146101f95780634d0092881461030157806359ae069b1461032a57806381585c4614610425578063e2842d79146104dd575b600080fd5b341561008857600080fd5b61009e6004808035906020019091905050610547565b604051808581526020018473ffffffffffffffffffffffffffffffffffffffff1673ffffffffffffffffffffffffffffffffffffffff16815260200180602001806020018381038352858181546001816001161561010002031660029004815260200191508054600181600116156101000203166002900480156101635780601f1061013857610100808354040283529160200191610163565b820191906000526020600020905b81548152906001019060200180831161014657829003601f168201915b50508381038252848181546001816001161561010002031660029004815260200191508054600181600116156101000203166002900480156101e65780601f106101bb576101008083540402835291602001916101e6565b820191906000526020600020905b8154815290600101906020018083116101c957829003601f168201915b5050965050505050505060405180910390f35b341561020457600080fd5b61021a6004808035906020019091905050610595565b604051808060200180602001838103835285818151815260200191508051906020019080838360005b8381101561025e578082015181840152602081019050610243565b50505050905090810190601f16801561028b5780820380516001836020036101000a031916815260200191505b50838103825284818151815260200191508051906020019080838360005b838110156102c45780820151818401526020810190506102a9565b50505050905090810190601f1680156102f15780820380516001836020036101000a031916815260200191505b5094505050505060405180910390f35b341561030c57600080fd5b610314610710565b6040518082815260200191505060405180910390f35b341561033557600080fd5b61040b600480803590602001908201803590602001908080601f0160208091040260200160405190810160405280939291908181526020018383808284378201915050505050509190803590602001908201803590602001908080601f0160208091040260200160405190810160405280939291908181526020018383808284378201915050505050509190803590602001908201803590602001908080601f0160208091040260200160405190810160405280939291908181526020018383808284378201915050505050509190505061071a565b604051808215151515815260200191505060405180910390f35b341561043057600080fd5b6104c3600480803590602001908201803590602001908080601f0160208091040260200160405190810160405280939291908181526020018383808284378201915050505050509190803590602001908201803590602001908080601f01602080910402602001604051908101604052809392919081815260200183838082843782019150505050505091905050610a20565b604051808215151515815260200191505060405180910390f35b34156104e857600080fd5b6104f0610c34565b6040518080602001828103825283818151815260200191508051906020019060200280838360005b83811015610533578082015181840152602081019050610518565b505050509050019250505060405180910390f35b60006020528060005260406000206000915090508060000154908060010160009054906101000a900473ffffffffffffffffffffffffffffffffffffffff1690806002019080600301905084565b61059d610cbf565b6105a5610cbf565b600080848152602001908152602001600020600201600080858152602001908152602001600020600301818054600181600116156101000203166002900480601f0160208091040260200160405190810160405280929190818152602001828054600181600116156101000203166002900480156106645780601f1061063957610100808354040283529160200191610664565b820191906000526020600020905b81548152906001019060200180831161064757829003601f168201915b50505050509150808054600181600116156101000203166002900480601f0160208091040260200160405190810160405280929190818152602001828054600181600116156101000203166002900480156107005780601f106106d557610100808354040283529160200191610700565b820191906000526020600020905b8154815290600101906020018083116106e357829003601f168201915b5050505050905091509150915091565b6000600154905090565b600080600190506000600154141561081f5760806040519081016040528060015481526020013373ffffffffffffffffffffffffffffffffffffffff1681526020018681526020018581525060008060015481526020019081526020016000206000820151816000015560208201518160010160006101000a81548173ffffffffffffffffffffffffffffffffffffffff021916908373ffffffffffffffffffffffffffffffffffffffff16021790555060408201518160020190805190602001906107e7929190610cd3565b506060820151816003019080519060200190610804929190610cd3565b509050506001600081548092919060010191905055506109f3565b6002604051808280546001816001161561010002031660029004801561087c5780601f1061085a57610100808354040283529182019161087c565b820191906000526020600020905b815481529060010190602001808311610868575b5050915050604051809103902060001916836040518082805190602001908083835b6020831015156108c3578051825260208201915060208101905060208303925061089e565b6001836020036101000a03801982511681845116808217855250505050505090500191505060405180910390206000191614156109ed5760806040519081016040528060015481526020013373ffffffffffffffffffffffffffffffffffffffff1681526020018681526020018581525060008060015481526020019081526020016000206000820151816000015560208201518160010160006101000a81548173ffffffffffffffffffffffffffffffffffffffff021916908373ffffffffffffffffffffffffffffffffffffffff16021790555060408201518160020190805190602001906109b5929190610cd3565b5060608201518160030190805190602001906109d2929190610cd3565b509050506001600081548092919060010191905055506109f2565b600090505b5b600180541415610a15578460029080519060200190610a13929190610d53565b505b809150509392505050565b600080600090505b60015481111515610c2857836040518082805190602001908083835b602083101515610a695780518252602082019150602081019050602083039250610a44565b6001836020036101000a0380198251168184511680821785525050505050509050019150506040518091039020600019166000808381526020019081526020016000206002016040518082805460018160011615610100020316600290048015610b0a5780601f10610ae8576101008083540402835291820191610b0a565b820191906000526020600020905b815481529060010190602001808311610af6575b5050915050604051809103902060001916148015610c0d5750826040518082805190602001908083835b602083101515610b595780518252602082019150602081019050602083039250610b34565b6001836020036101000a0380198251168184511680821785525050505050509050019150506040518091039020600019166000808381526020019081526020016000206003016040518082805460018160011615610100020316600290048015610bfa5780601f10610bd8576101008083540402835291820191610bfa565b820191906000526020600020905b815481529060010190602001808311610be6575b5050915050604051809103902060001916145b15610c1b5760019150610c2d565b8080600101915050610a28565b600091505b5092915050565b610c3c610dd3565b610c44610dd3565b6000600154604051805910610c565750595b90808252806020026020018201604052509150600090505b600154811015610cb757600080828152602001908152602001600020600001548282815181101515610c9c57fe5b90602001906020020181815250508080600101915050610c6e565b819250505090565b602060405190810160405280600081525090565b828054600181600116156101000203166002900490600052602060002090601f016020900481019282601f10610d1457805160ff1916838001178555610d42565b82800160010185558215610d42579182015b82811115610d41578251825591602001919060010190610d26565b5b509050610d4f9190610de7565b5090565b828054600181600116156101000203166002900490600052602060002090601f016020900481019282601f10610d9457805160ff1916838001178555610dc2565b82800160010185558215610dc2579182015b82811115610dc1578251825591602001919060010190610da6565b5b509050610dcf9190610de7565b5090565b602060405190810160405280600081525090565b610e0991905b80821115610e05576000816000905550600101610ded565b5090565b905600a165627a7a7230582062a364286f0ff847312ae1c1a487cbc1778e1517efbdf2d8f1a0fa9f5338067c0029",
  "source": "pragma solidity ^0.4.18;\r\n\r\ncontract Auth {\r\n\r\n  struct User {\r\n    uint id;\r\n    address creator;\r\n    string username;\r\n    string password;\r\n  }\r\n\r\n  mapping(uint => User) public users;\r\n  uint userCounter;\r\n  string superuser;\r\n\r\n\r\n  // functions that modify a state var cannot have a return value, only the transaction receipt\r\n  function createUser(string _username, string _password, string _loggedUser) public returns (bool) {\r\n    bool result = true;\r\n\r\n    // if its the first account: superuser\r\n    if(userCounter == 0){\r\n\r\n      users[userCounter] = User(userCounter, msg.sender, _username, _password);\r\n      userCounter++;\r\n    }else{\r\n      // if logged user is the superuser, then you can create an account\r\n      if(keccak256(_loggedUser) == keccak256(superuser)){\r\n\r\n        users[userCounter] = User(userCounter, msg.sender, _username, _password);\r\n        userCounter++;\r\n      }else{\r\n        result = false;\r\n      }\r\n    }\r\n\r\n    if (userCounter == 1){\r\n      superuser = _username;\r\n    }\r\n    return result;\r\n  }\r\n\r\n  function existsUser(string _username, string _password) public view returns (bool result){\r\n    for(uint i = 0; i <= userCounter; i++){\r\n      if(keccak256(users[i].username) == keccak256(_username) && keccak256(users[i].password) == keccak256(_password)){\r\n        return true;\r\n      }\r\n    }\r\n    return false;\r\n  }\r\n\r\n// still in progress\r\n  function getAllUsers() public view returns(uint[] memory){\r\n    uint[] memory userids = new uint[](userCounter);\r\n\r\n    for(uint i = 0; i < userCounter; i++){\r\n      userids[i] = users[i].id;\r\n    }\r\n\r\n    return userids;\r\n  }\r\n\r\n  // if you want a return value, mark functions as pure or view\r\n  function getNumberOfUsers() public view returns(uint number){\r\n    return userCounter;\r\n  }\r\n\r\n  function getuser(uint index)  public  constant  returns(string _name, string _password) {\r\n      return (users[index].username, users[index].password);\r\n  }\r\n\r\n}\r\n",
  "sourcePath": "C:\\Users\\Mariana\\Desktop\\nodejs\\express-truffle-dapp\\contracts\\Auth.sol",
  "compiler": {
    "name": "solc",
    "version": "0.4.19+commit.c4cbbb05.Emscripten.clang"
  },
  "schemaVersion": "2.0.0",
  "updatedAt": "2019-11-04T15:20:58.464Z"
}