{
  "contractName": "AuthHash",
  "abi": [
    {
      "constant": true,
      "inputs": [
        {
          "name": "",
          "type": "uint256"
        }
      ],
      "name": "userHashes",
      "outputs": [
        {
          "name": "id",
          "type": "uint256"
        },
        {
          "name": "hashInfo",
          "type": "bytes32"
        }
      ],
      "payable": false,
      "stateMutability": "view",
      "type": "function"
    },
    {
      "constant": false,
      "inputs": [
        {
          "name": "_hashSubject",
          "type": "string"
        }
      ],
      "name": "createUserHash",
      "outputs": [
        {
          "name": "result",
          "type": "bool"
        }
      ],
      "payable": false,
      "stateMutability": "nonpayable",
      "type": "function"
    },
    {
      "constant": true,
      "inputs": [
        {
          "name": "test",
          "type": "string"
        },
        {
          "name": "index",
          "type": "uint256"
        }
      ],
      "name": "compareHash",
      "outputs": [
        {
          "name": "result",
          "type": "bool"
        }
      ],
      "payable": false,
      "stateMutability": "view",
      "type": "function"
    },
    {
      "constant": true,
      "inputs": [],
      "name": "getNumberOfUsers",
      "outputs": [
        {
          "name": "number",
          "type": "uint256"
        }
      ],
      "payable": false,
      "stateMutability": "view",
      "type": "function"
    },
    {
      "constant": true,
      "inputs": [
        {
          "name": "index",
          "type": "uint256"
        }
      ],
      "name": "getUserHash",
      "outputs": [
        {
          "name": "_userHash",
          "type": "bytes32"
        }
      ],
      "payable": false,
      "stateMutability": "view",
      "type": "function"
    }
  ],
  "bytecode": "0x6060604052341561000f57600080fd5b6103f48061001e6000396000f30060606040526004361061006d576000357c0100000000000000000000000000000000000000000000000000000000900463ffffffff1680634d009288146100725780634e838e6a1461009b57806377c15a8f146100da578063876318c91461014f57806394e15a6b14610195575b600080fd5b341561007d57600080fd5b610085610213565b6040518082815260200191505060405180910390f35b34156100a657600080fd5b6100bc600480803590602001909190505061021d565b60405180826000191660001916815260200191505060405180910390f35b34156100e557600080fd5b610135600480803590602001908201803590602001908080601f0160208091040260200160405190810160405280939291908181526020018383808284378201915050505050509190505061023c565b604051808215151515815260200191505060405180910390f35b341561015a57600080fd5b6101706004808035906020019091905050610307565b6040518083815260200182600019166000191681526020019250505060405180910390f35b34156101a057600080fd5b6101f9600480803590602001908201803590602001908080601f0160208091040260200160405190810160405280939291908181526020018383808284378201915050505050509190803590602001909190505061032b565b604051808215151515815260200191505060405180910390f35b6000600154905090565b6000806000838152602001908152602001600020600101549050919050565b600060408051908101604052806001548152602001836040518082805190602001908083835b6020831015156102875780518252602082019150602081019050602083039250610262565b6001836020036101000a0380198251168184511680821785525050505050509050019150506040518091039020600019168152506000806001548152602001908152602001600020600082015181600001556020820151816001019060001916905590505060016000815480929190600101919050555060019050919050565b60006020528060005260406000206000915090508060000154908060010154905082565b60008060008381526020019081526020016000206001015460001916836040518082805190602001908083835b60208310151561037d5780518252602082019150602081019050602083039250610358565b6001836020036101000a03801982511681845116808217855250505050505090500191505060405180910390206000191614156103bd57600190506103c2565b600090505b929150505600a165627a7a72305820825bb721026acc69cd2b7b413701c7d0bced793e412e8d227d50525e1cb821180029",
  "source": "pragma solidity ^0.4.18;\r\n\r\ncontract AuthHash{\r\n  struct UserHash{\r\n    uint id;\r\n    bytes32 hashInfo;\r\n  }\r\n\r\n  mapping(uint => UserHash) public userHashes;\r\n  uint userCounter;\r\n\r\n  function createUserHash(string _hashSubject) public returns (bool result){\r\n    // hashing occurs\r\n    userHashes[userCounter] = UserHash(userCounter, keccak256(_hashSubject));\r\n    userCounter++;\r\n    return true;\r\n  }\r\n  function compareHash(string test, uint index) public view returns (bool result){\r\n    if(keccak256(test) == userHashes[index].hashInfo){\r\n      return true;\r\n    }\r\n    return false;\r\n  }\r\n\r\n  function getNumberOfUsers() public view returns(uint number){\r\n    return userCounter;\r\n  }\r\n\r\n  function getUserHash(uint index)  public  constant  returns(bytes32 _userHash) {\r\n      return (userHashes[index].hashInfo);\r\n  }\r\n}\r\n",
  "sourcePath": "C:\\Users\\Mariana\\Desktop\\nodejs\\express-truffle-dapp\\contracts\\AuthHash.sol",
  "compiler": {
    "name": "solc",
    "version": "0.4.19+commit.c4cbbb05.Emscripten.clang"
  },
  "schemaVersion": "2.0.0",
  "updatedAt": "2019-10-27T01:20:15.796Z"
}