{
  "contractName": "AuthHash",
  "abi": [
    {
      "constant": false,
      "inputs": [
        {
          "name": "_dbID",
          "type": "string"
        },
        {
          "name": "_hashSubject",
          "type": "string"
        }
      ],
      "name": "createUserHash",
      "outputs": [
        {
          "name": "result",
          "type": "bool"
        }
      ],
      "payable": false,
      "stateMutability": "nonpayable",
      "type": "function"
    },
    {
      "constant": true,
      "inputs": [
        {
          "name": "_dbID",
          "type": "string"
        },
        {
          "name": "_test",
          "type": "string"
        }
      ],
      "name": "compareHash",
      "outputs": [
        {
          "name": "result",
          "type": "bool"
        }
      ],
      "payable": false,
      "stateMutability": "view",
      "type": "function"
    },
    {
      "constant": true,
      "inputs": [],
      "name": "getNumberOfUsers",
      "outputs": [
        {
          "name": "number",
          "type": "uint256"
        }
      ],
      "payable": false,
      "stateMutability": "view",
      "type": "function"
    },
    {
      "constant": true,
      "inputs": [
        {
          "name": "_dbID",
          "type": "string"
        }
      ],
      "name": "getUserHash",
      "outputs": [
        {
          "name": "_userHash",
          "type": "bytes32"
        }
      ],
      "payable": false,
      "stateMutability": "view",
      "type": "function"
    }
  ],
  "bytecode": "0x6060604052341561000f57600080fd5b6105f48061001e6000396000f300606060405260043610610062576000357c0100000000000000000000000000000000000000000000000000000000900463ffffffff1680634d00928814610067578063a64b38a214610090578063c0a2c03c14610148578063f5498bb9146101c1575b600080fd5b341561007257600080fd5b61007a610279565b6040518082815260200191505060405180910390f35b341561009b57600080fd5b61012e600480803590602001908201803590602001908080601f0160208091040260200160405190810160405280939291908181526020018383808284378201915050505050509190803590602001908201803590602001908080601f01602080910402602001604051908101604052809392919081815260200183838082843782019150505050505091905050610283565b604051808215151515815260200191505060405180910390f35b341561015357600080fd5b6101a3600480803590602001908201803590602001908080601f016020809104026020016040519081016040528093929190818152602001838380828437820191505050505050919050506103b7565b60405180826000191660001916815260200191505060405180910390f35b34156101cc57600080fd5b61025f600480803590602001908201803590602001908080601f0160208091040260200160405190810160405280939291908181526020018383808284378201915050505050509190803590602001908201803590602001908080601f0160208091040260200160405190810160405280939291908181526020018383808284378201915050505050509190505061042e565b604051808215151515815260200191505060405180910390f35b6000600154905090565b60006040805190810160405280848152602001836040518082805190602001908083835b6020831015156102cc57805182526020820191506020810190506020830392506102a7565b6001836020036101000a0380198251168184511680821785525050505050509050019150506040518091039020600019168152506000846040518082805190602001908083835b6020831015156103385780518252602082019150602081019050602083039250610313565b6001836020036101000a03801982511681845116808217855250505050505090500191505090815260200160405180910390206000820151816000019080519060200190610387929190610523565b50602082015181600101906000191690559050506001600081548092919060010191905055506001905092915050565b600080826040518082805190602001908083835b6020831015156103f057805182526020820191506020810190506020830392506103cb565b6001836020036101000a0380198251168184511680821785525050505050509050019150509081526020016040518091039020600101549050919050565b600080836040518082805190602001908083835b6020831015156104675780518252602082019150602081019050602083039250610442565b6001836020036101000a03801982511681845116808217855250505050505090500191505090815260200160405180910390206001015460001916826040518082805190602001908083835b6020831015156104d857805182526020820191506020810190506020830392506104b3565b6001836020036101000a0380198251168184511680821785525050505050509050019150506040518091039020600019161415610518576001905061051d565b600090505b92915050565b828054600181600116156101000203166002900490600052602060002090601f016020900481019282601f1061056457805160ff1916838001178555610592565b82800160010185558215610592579182015b82811115610591578251825591602001919060010190610576565b5b50905061059f91906105a3565b5090565b6105c591905b808211156105c15760008160009055506001016105a9565b5090565b905600a165627a7a723058202286bbc059bc0c61efa3e6712e7af417a05aba4537214e9631eed54924280f6d0029",
  "source": "pragma solidity ^0.4.18;\r\n\r\ncontract AuthHash{\r\n  struct UserHash{\r\n    string id;\r\n    bytes32 hashInfo;\r\n  }\r\n\r\n// a string can be a map key, but the map must not be public\r\n  mapping(string => UserHash) userHashes;\r\n  uint userCounter;\r\n\r\n  function createUserHash(string _dbID, string _hashSubject) public returns (bool result){\r\n    // hashing occurs\r\n    userHashes[_dbID] = UserHash(_dbID, keccak256(_hashSubject));\r\n    userCounter++;\r\n    return true;\r\n  }\r\n  function compareHash(string _dbID, string _test) public view returns (bool result){\r\n    if(keccak256(_test) == userHashes[_dbID].hashInfo){\r\n      return true;\r\n    }\r\n    return false;\r\n  }\r\n\r\n  function getNumberOfUsers() public view returns(uint number){\r\n    return userCounter;\r\n  }\r\n\r\n  function getUserHash(string _dbID) public  constant  returns(bytes32 _userHash) {\r\n      return (userHashes[_dbID].hashInfo);\r\n  }\r\n}\r\n",
  "sourcePath": "C:\\Users\\Mariana\\Desktop\\nodejs\\express-truffle-dapp\\contracts\\AuthHash.sol",
  "compiler": {
    "name": "solc",
    "version": "0.4.19+commit.c4cbbb05.Emscripten.clang"
  },
  "schemaVersion": "2.0.0",
  "updatedAt": "2019-11-04T14:46:00.625Z"
}