{
  "contractName": "ChainList",
  "abi": [
    {
      "constant": true,
      "inputs": [
        {
          "name": "",
          "type": "uint256"
        }
      ],
      "name": "articles",
      "outputs": [
        {
          "name": "id",
          "type": "uint256"
        },
        {
          "name": "seller",
          "type": "address"
        },
        {
          "name": "buyer",
          "type": "address"
        },
        {
          "name": "name",
          "type": "string"
        },
        {
          "name": "description",
          "type": "string"
        },
        {
          "name": "price",
          "type": "uint256"
        }
      ],
      "payable": false,
      "stateMutability": "view",
      "type": "function"
    },
    {
      "anonymous": false,
      "inputs": [
        {
          "indexed": true,
          "name": "_id",
          "type": "uint256"
        },
        {
          "indexed": true,
          "name": "_seller",
          "type": "address"
        },
        {
          "indexed": false,
          "name": "_name",
          "type": "string"
        },
        {
          "indexed": false,
          "name": "_price",
          "type": "uint256"
        }
      ],
      "name": "LogSellArticle",
      "type": "event"
    },
    {
      "anonymous": false,
      "inputs": [
        {
          "indexed": true,
          "name": "_id",
          "type": "uint256"
        },
        {
          "indexed": true,
          "name": "_seller",
          "type": "address"
        },
        {
          "indexed": true,
          "name": "_buyer",
          "type": "address"
        },
        {
          "indexed": false,
          "name": "_name",
          "type": "string"
        },
        {
          "indexed": false,
          "name": "_price",
          "type": "uint256"
        }
      ],
      "name": "LogBuyArticle",
      "type": "event"
    },
    {
      "constant": false,
      "inputs": [
        {
          "name": "_name",
          "type": "string"
        },
        {
          "name": "_description",
          "type": "string"
        },
        {
          "name": "_price",
          "type": "uint256"
        }
      ],
      "name": "sellArticle",
      "outputs": [],
      "payable": false,
      "stateMutability": "nonpayable",
      "type": "function"
    },
    {
      "constant": true,
      "inputs": [],
      "name": "getNumberOfArticles",
      "outputs": [
        {
          "name": "",
          "type": "uint256"
        }
      ],
      "payable": false,
      "stateMutability": "view",
      "type": "function"
    },
    {
      "constant": true,
      "inputs": [],
      "name": "getArticlesForSale",
      "outputs": [
        {
          "name": "",
          "type": "uint256[]"
        }
      ],
      "payable": false,
      "stateMutability": "view",
      "type": "function"
    },
    {
      "constant": false,
      "inputs": [
        {
          "name": "_id",
          "type": "uint256"
        }
      ],
      "name": "buyArticle",
      "outputs": [],
      "payable": true,
      "stateMutability": "payable",
      "type": "function"
    }
  ],
  "bytecode": "0x6060604052341561000f57600080fd5b610b5b8061001e6000396000f30060606040526004361061006d576000357c0100000000000000000000000000000000000000000000000000000000900463ffffffff1680631cc4baa8146100725780637f6be3da1461008a57806389da85d3146100f4578063d26095151461011d578063edcfafe6146101c6575b600080fd5b610088600480803590602001909190505061037c565b005b341561009557600080fd5b61009d610663565b6040518080602001828103825283818151815260200191508051906020019060200280838360005b838110156100e05780820151818401526020810190506100c5565b505050509050019250505060405180910390f35b34156100ff57600080fd5b6101076107cd565b6040518082815260200191505060405180910390f35b341561012857600080fd5b6101c4600480803590602001908201803590602001908080601f0160208091040260200160405190810160405280939291908181526020018383808284378201915050505050509190803590602001908201803590602001908080601f016020809104026020016040519081016040528093929190818152602001838380828437820191505050505050919080359060200190919050506107d7565b005b34156101d157600080fd5b6101e760048080359060200190919050506109fc565b604051808781526020018673ffffffffffffffffffffffffffffffffffffffff1673ffffffffffffffffffffffffffffffffffffffff1681526020018573ffffffffffffffffffffffffffffffffffffffff1673ffffffffffffffffffffffffffffffffffffffff16815260200180602001806020018481526020018381038352868181546001816001161561010002031660029004815260200191508054600181600116156101000203166002900480156102e45780601f106102b9576101008083540402835291602001916102e4565b820191906000526020600020905b8154815290600101906020018083116102c757829003601f168201915b50508381038252858181546001816001161561010002031660029004815260200191508054600181600116156101000203166002900480156103675780601f1061033c57610100808354040283529160200191610367565b820191906000526020600020905b81548152906001019060200180831161034a57829003601f168201915b50509850505050505050505060405180910390f35b60008060015411151561038e57600080fd5b6000821180156103a057506001548211155b15156103ab57600080fd5b600080838152602001908152602001600020905060008160020160009054906101000a900473ffffffffffffffffffffffffffffffffffffffff1673ffffffffffffffffffffffffffffffffffffffff1614151561040857600080fd5b8060010160009054906101000a900473ffffffffffffffffffffffffffffffffffffffff1673ffffffffffffffffffffffffffffffffffffffff163373ffffffffffffffffffffffffffffffffffffffff161415151561046757600080fd5b80600501543414151561047957600080fd5b338160020160006101000a81548173ffffffffffffffffffffffffffffffffffffffff021916908373ffffffffffffffffffffffffffffffffffffffff1602179055508060010160009054906101000a900473ffffffffffffffffffffffffffffffffffffffff1673ffffffffffffffffffffffffffffffffffffffff166108fc349081150290604051600060405180830381858888f19350505050151561052057600080fd5b8060020160009054906101000a900473ffffffffffffffffffffffffffffffffffffffff1673ffffffffffffffffffffffffffffffffffffffff168160010160009054906101000a900473ffffffffffffffffffffffffffffffffffffffff1673ffffffffffffffffffffffffffffffffffffffff16837f5d28bc06e6f0c45405abfe77bd77236c767f9bd9d044ae2d954a415a2b4823e084600301856005015460405180806020018381526020018281038252848181546001816001161561010002031660029004815260200191508054600181600116156101000203166002900480156106505780601f1061062557610100808354040283529160200191610650565b820191906000526020600020905b81548152906001019060200180831161063357829003601f168201915b5050935050505060405180910390a45050565b61066b610a76565b610673610a76565b60008061067e610a76565b60006001546040518059106106905750595b9080825280602002602001820160405250945060009350600092505b6001548311151561075357600080600085815260200190815260200160002060020160009054906101000a900473ffffffffffffffffffffffffffffffffffffffff1673ffffffffffffffffffffffffffffffffffffffff1614156107465760008084815260200190815260200160002060000154858581518110151561072f57fe5b906020019060200201818152505083806001019450505b82806001019350506106ac565b836040518059106107615750595b90808252806020026020018201604052509150600090505b838110156107c257848181518110151561078f57fe5b9060200190602002015182828151811015156107a757fe5b90602001906020020181815250508080600101915050610779565b819550505050505090565b6000600154905090565b60016000815480929190600101919050555060c06040519081016040528060015481526020013373ffffffffffffffffffffffffffffffffffffffff168152602001600073ffffffffffffffffffffffffffffffffffffffff1681526020018481526020018381526020018281525060008060015481526020019081526020016000206000820151816000015560208201518160010160006101000a81548173ffffffffffffffffffffffffffffffffffffffff021916908373ffffffffffffffffffffffffffffffffffffffff16021790555060408201518160020160006101000a81548173ffffffffffffffffffffffffffffffffffffffff021916908373ffffffffffffffffffffffffffffffffffffffff160217905550606082015181600301908051906020019061090e929190610a8a565b50608082015181600401908051906020019061092b929190610a8a565b5060a082015181600501559050503373ffffffffffffffffffffffffffffffffffffffff166001547fe2ebb0c522a8b90a93f45a5dfd3c0e0516b81519fdf199efe51c474642fe8cec85846040518080602001838152602001828103825284818151815260200191508051906020019080838360005b838110156109bc5780820151818401526020810190506109a1565b50505050905090810190601f1680156109e95780820380516001836020036101000a031916815260200191505b50935050505060405180910390a3505050565b60006020528060005260406000206000915090508060000154908060010160009054906101000a900473ffffffffffffffffffffffffffffffffffffffff16908060020160009054906101000a900473ffffffffffffffffffffffffffffffffffffffff1690806003019080600401908060050154905086565b602060405190810160405280600081525090565b828054600181600116156101000203166002900490600052602060002090601f016020900481019282601f10610acb57805160ff1916838001178555610af9565b82800160010185558215610af9579182015b82811115610af8578251825591602001919060010190610add565b5b509050610b069190610b0a565b5090565b610b2c91905b80821115610b28576000816000905550600101610b10565b5090565b905600a165627a7a72305820ecf0bc59b66c9907bf17e225d5cef45060876d7935aa9d6c4d3e38c7a9bc8b390029",
  "source": "pragma solidity ^0.4.18;\n\ncontract ChainList {\n  // custome types\n  struct Article {\n    uint id;\n    address seller;\n    address buyer;\n    string name;\n    string description;\n    uint256 price;\n  }\n\n// mappings: associative arrays (keys) whose values are set to zero by default\n// cannot be iterated, cant tell size\n// state variables\n// if any state variable is public, solidity auto-generates a getter\n// integer key mapping:\nmapping(uint => Article) public articles;\nuint articleCounter;\n\n  // events\n  event LogSellArticle(\n    uint indexed _id,\n    address indexed _seller,\n    string _name,\n    uint256 _price\n  );\n\n  event LogBuyArticle(\n    uint indexed _id,\n    address indexed _seller,\n    address indexed _buyer,\n    string _name,\n    uint256 _price\n  );\n\n  // sell an article\n  function sellArticle(string _name, string _description, uint256 _price) public {\n    // a new article\n    articleCounter++;\n    articles[articleCounter] = Article(\n        articleCounter,\n        msg.sender,\n        0x0,\n        _name,\n        _description,\n        _price\n      );\n\n    LogSellArticle(articleCounter, msg.sender, _name, _price);\n  }\n\n/*\n  // get an article\n  function getArticle() public view returns (\n    address _seller,\n    address _buyers,\n    string _name,\n    string _description,\n    uint256 _price\n  ) {\n      return(seller, buyer, name, description, price);\n  }\n*/\n\n// get the number of articles in the contract\n// view means the function can access the state vars\n// public means the function can be called from outside the contract (backend)\nfunction getNumberOfArticles() public view returns (uint){\n  return articleCounter;\n}\n\n// fetch and return all article ids for articles still for sale\nfunction getArticlesForSale() public view returns(uint[]){\n  // local arrays: stored in storage or memory\n  uint[] memory articleIds = new uint[](articleCounter);\n\n  uint numberOfArticlesForSale = 0;\n  // iterate over articles\n  for(uint i = 0; i <= articleCounter; i++){\n    // keep the ID if the article is still for sale\n    if(articles[i].buyer == 0x0){\n      articleIds[numberOfArticlesForSale] = articles[i].id;\n      numberOfArticlesForSale++;\n    }\n  }\n\n  // copy the articleIds array into a smaller forSale array\n  // sometimes solidity requires it\n  uint[] memory forSale = new uint[](numberOfArticlesForSale);\n  for (uint j = 0; j < numberOfArticlesForSale; j++){\n    forSale[j] = articleIds[j];\n  }\n  return forSale;\n}\n\n  //Buy an articles\n  //Payable means that this function can receive ether from its caller\n  function buyArticle(uint _id) payable public{\n    //We check whether there is an article for sale\n    require(articleCounter > 0);\n\n    // we check that the article exists\n    require(_id > 0 && _id <= articleCounter);\n\n    //retrieve the article from the mapping\n    Article storage article = articles[_id];\n\n    //We check that the article has not been sold yet\n    require(article.buyer == 0x0);\n\n    //We don't allow the seller to buy his own article\n    require(msg.sender != article.seller);\n\n    //We check that the value send correspond to the price of the article\n    require(msg.value == article.price);\n\n    // once we check all previous validations,\n    //Keep track of the buyer information\n    article.buyer = msg.sender;\n\n    // the buyer can pay the seller\n    article.seller.transfer(msg.value);\n\n    // trigger the event\n    LogBuyArticle(_id, article.seller, article.buyer, article.name, article.price);\n  }\n}\n",
  "sourcePath": "C:\\Users\\Mariana\\Desktop\\nodejs\\express-truffle-dapp\\contracts\\ChainList.sol",
  "compiler": {
    "name": "solc",
    "version": "0.4.19+commit.c4cbbb05.Emscripten.clang"
  },
  "schemaVersion": "2.0.0",
  "updatedAt": "2019-10-27T01:20:15.806Z"
}